{
  "_format": "hh-sol-artifact-1",
  "contractName": "DavidoConcert",
  "sourceName": "contracts/DavidoConcert.sol",
  "abi": [
    {
      "inputs": [],
      "stateMutability": "nonpayable",
      "type": "constructor"
    },
    {
      "anonymous": false,
      "inputs": [
        {
          "indexed": true,
          "internalType": "address",
          "name": "owner",
          "type": "address"
        },
        {
          "indexed": true,
          "internalType": "address",
          "name": "approved",
          "type": "address"
        },
        {
          "indexed": true,
          "internalType": "uint256",
          "name": "tokenId",
          "type": "uint256"
        }
      ],
      "name": "Approval",
      "type": "event"
    },
    {
      "anonymous": false,
      "inputs": [
        {
          "indexed": true,
          "internalType": "address",
          "name": "owner",
          "type": "address"
        },
        {
          "indexed": true,
          "internalType": "address",
          "name": "operator",
          "type": "address"
        },
        {
          "indexed": false,
          "internalType": "bool",
          "name": "approved",
          "type": "bool"
        }
      ],
      "name": "ApprovalForAll",
      "type": "event"
    },
    {
      "anonymous": false,
      "inputs": [
        {
          "indexed": true,
          "internalType": "address",
          "name": "from",
          "type": "address"
        },
        {
          "indexed": true,
          "internalType": "address",
          "name": "to",
          "type": "address"
        },
        {
          "indexed": true,
          "internalType": "uint256",
          "name": "tokenId",
          "type": "uint256"
        }
      ],
      "name": "Transfer",
      "type": "event"
    },
    {
      "stateMutability": "payable",
      "type": "fallback"
    },
    {
      "inputs": [],
      "name": "ConcertState",
      "outputs": [
        {
          "internalType": "enum DavidoConcert.State",
          "name": "",
          "type": "uint8"
        }
      ],
      "stateMutability": "view",
      "type": "function"
    },
    {
      "inputs": [],
      "name": "MAX_TICKET",
      "outputs": [
        {
          "internalType": "uint16",
          "name": "",
          "type": "uint16"
        }
      ],
      "stateMutability": "view",
      "type": "function"
    },
    {
      "inputs": [],
      "name": "PRE_SALE_TICKETS",
      "outputs": [
        {
          "internalType": "uint8",
          "name": "",
          "type": "uint8"
        }
      ],
      "stateMutability": "view",
      "type": "function"
    },
    {
      "inputs": [],
      "name": "SOULBOUND_TOKENS",
      "outputs": [
        {
          "internalType": "uint8",
          "name": "",
          "type": "uint8"
        }
      ],
      "stateMutability": "view",
      "type": "function"
    },
    {
      "inputs": [],
      "name": "TICKETPRICE",
      "outputs": [
        {
          "internalType": "uint64",
          "name": "",
          "type": "uint64"
        }
      ],
      "stateMutability": "view",
      "type": "function"
    },
    {
      "inputs": [
        {
          "internalType": "address[]",
          "name": "_guests",
          "type": "address[]"
        }
      ],
      "name": "addWhitelist",
      "outputs": [],
      "stateMutability": "nonpayable",
      "type": "function"
    },
    {
      "inputs": [
        {
          "internalType": "address",
          "name": "to",
          "type": "address"
        },
        {
          "internalType": "uint256",
          "name": "tokenId",
          "type": "uint256"
        }
      ],
      "name": "approve",
      "outputs": [],
      "stateMutability": "nonpayable",
      "type": "function"
    },
    {
      "inputs": [
        {
          "internalType": "address",
          "name": "owner",
          "type": "address"
        }
      ],
      "name": "balanceOf",
      "outputs": [
        {
          "internalType": "uint256",
          "name": "",
          "type": "uint256"
        }
      ],
      "stateMutability": "view",
      "type": "function"
    },
    {
      "inputs": [],
      "name": "buyTicket",
      "outputs": [],
      "stateMutability": "payable",
      "type": "function"
    },
    {
      "inputs": [],
      "name": "endTime",
      "outputs": [
        {
          "internalType": "uint256",
          "name": "",
          "type": "uint256"
        }
      ],
      "stateMutability": "view",
      "type": "function"
    },
    {
      "inputs": [
        {
          "internalType": "uint256",
          "name": "tokenId",
          "type": "uint256"
        }
      ],
      "name": "getApproved",
      "outputs": [
        {
          "internalType": "address",
          "name": "",
          "type": "address"
        }
      ],
      "stateMutability": "view",
      "type": "function"
    },
    {
      "inputs": [
        {
          "internalType": "address",
          "name": "",
          "type": "address"
        }
      ],
      "name": "guests",
      "outputs": [
        {
          "internalType": "bool",
          "name": "",
          "type": "bool"
        }
      ],
      "stateMutability": "view",
      "type": "function"
    },
    {
      "inputs": [
        {
          "internalType": "address",
          "name": "owner",
          "type": "address"
        },
        {
          "internalType": "address",
          "name": "operator",
          "type": "address"
        }
      ],
      "name": "isApprovedForAll",
      "outputs": [
        {
          "internalType": "bool",
          "name": "",
          "type": "bool"
        }
      ],
      "stateMutability": "view",
      "type": "function"
    },
    {
      "inputs": [],
      "name": "kill",
      "outputs": [],
      "stateMutability": "nonpayable",
      "type": "function"
    },
    {
      "inputs": [],
      "name": "name",
      "outputs": [
        {
          "internalType": "string",
          "name": "",
          "type": "string"
        }
      ],
      "stateMutability": "view",
      "type": "function"
    },
    {
      "inputs": [],
      "name": "owner",
      "outputs": [
        {
          "internalType": "address",
          "name": "",
          "type": "address"
        }
      ],
      "stateMutability": "view",
      "type": "function"
    },
    {
      "inputs": [
        {
          "internalType": "uint256",
          "name": "tokenId",
          "type": "uint256"
        }
      ],
      "name": "ownerOf",
      "outputs": [
        {
          "internalType": "address",
          "name": "",
          "type": "address"
        }
      ],
      "stateMutability": "view",
      "type": "function"
    },
    {
      "inputs": [
        {
          "internalType": "address",
          "name": "_guest",
          "type": "address"
        }
      ],
      "name": "removeWhitedAddress",
      "outputs": [],
      "stateMutability": "nonpayable",
      "type": "function"
    },
    {
      "inputs": [
        {
          "internalType": "address",
          "name": "from",
          "type": "address"
        },
        {
          "internalType": "address",
          "name": "to",
          "type": "address"
        },
        {
          "internalType": "uint256",
          "name": "tokenId",
          "type": "uint256"
        }
      ],
      "name": "safeTransferFrom",
      "outputs": [],
      "stateMutability": "nonpayable",
      "type": "function"
    },
    {
      "inputs": [
        {
          "internalType": "address",
          "name": "from",
          "type": "address"
        },
        {
          "internalType": "address",
          "name": "to",
          "type": "address"
        },
        {
          "internalType": "uint256",
          "name": "tokenId",
          "type": "uint256"
        },
        {
          "internalType": "bytes",
          "name": "data",
          "type": "bytes"
        }
      ],
      "name": "safeTransferFrom",
      "outputs": [],
      "stateMutability": "nonpayable",
      "type": "function"
    },
    {
      "inputs": [
        {
          "internalType": "address",
          "name": "operator",
          "type": "address"
        },
        {
          "internalType": "bool",
          "name": "approved",
          "type": "bool"
        }
      ],
      "name": "setApprovalForAll",
      "outputs": [],
      "stateMutability": "nonpayable",
      "type": "function"
    },
    {
      "inputs": [],
      "name": "startProperSales",
      "outputs": [],
      "stateMutability": "nonpayable",
      "type": "function"
    },
    {
      "inputs": [],
      "name": "startTime",
      "outputs": [
        {
          "internalType": "uint256",
          "name": "",
          "type": "uint256"
        }
      ],
      "stateMutability": "view",
      "type": "function"
    },
    {
      "inputs": [
        {
          "internalType": "bytes4",
          "name": "interfaceId",
          "type": "bytes4"
        }
      ],
      "name": "supportsInterface",
      "outputs": [
        {
          "internalType": "bool",
          "name": "",
          "type": "bool"
        }
      ],
      "stateMutability": "view",
      "type": "function"
    },
    {
      "inputs": [],
      "name": "symbol",
      "outputs": [
        {
          "internalType": "string",
          "name": "",
          "type": "string"
        }
      ],
      "stateMutability": "view",
      "type": "function"
    },
    {
      "inputs": [
        {
          "internalType": "uint256",
          "name": "",
          "type": "uint256"
        }
      ],
      "name": "tickets",
      "outputs": [
        {
          "internalType": "uint256",
          "name": "id",
          "type": "uint256"
        },
        {
          "internalType": "address",
          "name": "guest",
          "type": "address"
        },
        {
          "internalType": "bool",
          "name": "sold",
          "type": "bool"
        }
      ],
      "stateMutability": "view",
      "type": "function"
    },
    {
      "inputs": [
        {
          "internalType": "uint256",
          "name": "tokenId",
          "type": "uint256"
        }
      ],
      "name": "tokenURI",
      "outputs": [
        {
          "internalType": "string",
          "name": "",
          "type": "string"
        }
      ],
      "stateMutability": "view",
      "type": "function"
    },
    {
      "inputs": [],
      "name": "totalAmount",
      "outputs": [
        {
          "internalType": "uint72",
          "name": "",
          "type": "uint72"
        }
      ],
      "stateMutability": "view",
      "type": "function"
    },
    {
      "inputs": [],
      "name": "totalTicketSold",
      "outputs": [
        {
          "internalType": "uint16",
          "name": "",
          "type": "uint16"
        }
      ],
      "stateMutability": "view",
      "type": "function"
    },
    {
      "inputs": [
        {
          "internalType": "address",
          "name": "from",
          "type": "address"
        },
        {
          "internalType": "address",
          "name": "to",
          "type": "address"
        },
        {
          "internalType": "uint256",
          "name": "tokenId",
          "type": "uint256"
        }
      ],
      "name": "transferFrom",
      "outputs": [],
      "stateMutability": "nonpayable",
      "type": "function"
    },
    {
      "inputs": [
        {
          "internalType": "address",
          "name": "",
          "type": "address"
        }
      ],
      "name": "whitelist",
      "outputs": [
        {
          "internalType": "bool",
          "name": "",
          "type": "bool"
        }
      ],
      "stateMutability": "view",
      "type": "function"
    },
    {
      "stateMutability": "payable",
      "type": "receive"
    }
  ],
  "bytecode": "0x60806040523480156200001157600080fd5b506040518060400160405280600c81526020017f44415649444f5449434b455400000000000000000000000000000000000000008152506040518060400160405280600481526020017f444156540000000000000000000000000000000000000000000000000000000081525081600090816200008f9190620003df565b508060019081620000a19190620003df565b505050604051620000b29062000157565b604051809103906000f080158015620000cf573d6000803e3d6000fd5b50600660006101000a81548173ffffffffffffffffffffffffffffffffffffffff021916908373ffffffffffffffffffffffffffffffffffffffff16021790555033600760006101000a81548173ffffffffffffffffffffffffffffffffffffffff021916908373ffffffffffffffffffffffffffffffffffffffff160217905550620004c6565b611db0806200431e83390190565b600081519050919050565b7f4e487b7100000000000000000000000000000000000000000000000000000000600052604160045260246000fd5b7f4e487b7100000000000000000000000000000000000000000000000000000000600052602260045260246000fd5b60006002820490506001821680620001e757607f821691505b602082108103620001fd57620001fc6200019f565b5b50919050565b60008190508160005260206000209050919050565b60006020601f8301049050919050565b600082821b905092915050565b600060088302620002677fffffffffffffffffffffffffffffffffffffffffffffffffffffffffffffffff8262000228565b62000273868362000228565b95508019841693508086168417925050509392505050565b6000819050919050565b6000819050919050565b6000620002c0620002ba620002b4846200028b565b62000295565b6200028b565b9050919050565b6000819050919050565b620002dc836200029f565b620002f4620002eb82620002c7565b84845462000235565b825550505050565b600090565b6200030b620002fc565b62000318818484620002d1565b505050565b5b8181101562000340576200033460008262000301565b6001810190506200031e565b5050565b601f8211156200038f57620003598162000203565b620003648462000218565b8101602085101562000374578190505b6200038c620003838562000218565b8301826200031d565b50505b505050565b600082821c905092915050565b6000620003b46000198460080262000394565b1980831691505092915050565b6000620003cf8383620003a1565b9150826002028217905092915050565b620003ea8262000165565b67ffffffffffffffff81111562000406576200040562000170565b5b620004128254620001ce565b6200041f82828562000344565b600060209050601f83116001811462000457576000841562000442578287015190505b6200044e8582620003c1565b865550620004be565b601f198416620004678662000203565b60005b8281101562000491578489015182556001820191506020850194506020810190506200046a565b86831015620004b15784890151620004ad601f891682620003a1565b8355505b6001600288020188555050505b505050505050565b613e4880620004d66000396000f3fe6080604052600436106101dc5760003560e01c80636418861611610102578063b88d4fde11610095578063eab199f411610064578063eab199f4146106de578063edac985b14610709578063edca914c14610732578063faf04f791461073c576101e3565b8063b88d4fde14610610578063c87b56dd14610639578063d20871a214610676578063e985e9c5146106a1576101e3565b80638da5cb5b116100d15780638da5cb5b1461055457806395d89b411461057f5780639b19251a146105aa578063a22cb465146105e7576101e3565b806364188616146104aa57806370a08231146104d557806378e97925146105125780638c2aceaf1461053d576101e3565b806323b872dd1161017a57806341c0e1b51161014957806341c0e1b5146103ee57806342842e0e1461040557806350b447121461042e5780636352211e1461046d576101e3565b806323b872dd1461034657806326c67dea1461036f5780633197cbb61461039857806339b0400b146103c3576101e3565b8063095ea7b3116101b6578063095ea7b31461028a5780630d6fe86b146102b35780630eda85ee146102de5780631a39d8ef1461031b576101e3565b806301ffc9a7146101e557806306fdde0314610222578063081812fc1461024d576101e3565b366101e357005b005b3480156101f157600080fd5b5061020c6004803603810190610207919061295f565b610767565b60405161021991906129a7565b60405180910390f35b34801561022e57600080fd5b50610237610849565b6040516102449190612a52565b60405180910390f35b34801561025957600080fd5b50610274600480360381019061026f9190612aaa565b6108db565b6040516102819190612b18565b60405180910390f35b34801561029657600080fd5b506102b160048036038101906102ac9190612b5f565b610921565b005b3480156102bf57600080fd5b506102c8610a38565b6040516102d59190612c16565b60405180910390f35b3480156102ea57600080fd5b5061030560048036038101906103009190612c31565b610a4b565b60405161031291906129a7565b60405180910390f35b34801561032757600080fd5b50610330610a6b565b60405161033d9190612c82565b60405180910390f35b34801561035257600080fd5b5061036d60048036038101906103689190612c9d565b610a86565b005b34801561037b57600080fd5b5061039660048036038101906103919190612c31565b610ae6565b005b3480156103a457600080fd5b506103ad610be1565b6040516103ba9190612cff565b60405180910390f35b3480156103cf57600080fd5b506103d8610be7565b6040516103e59190612d36565b60405180910390f35b3480156103fa57600080fd5b50610403610bec565b005b34801561041157600080fd5b5061042c60048036038101906104279190612c9d565b610d1f565b005b34801561043a57600080fd5b5061045560048036038101906104509190612aaa565b610d3f565b60405161046493929190612d51565b60405180910390f35b34801561047957600080fd5b50610494600480360381019061048f9190612aaa565b610da6565b6040516104a19190612b18565b60405180910390f35b3480156104b657600080fd5b506104bf610e2c565b6040516104cc9190612d36565b60405180910390f35b3480156104e157600080fd5b506104fc60048036038101906104f79190612c31565b610e31565b6040516105099190612cff565b60405180910390f35b34801561051e57600080fd5b50610527610ee8565b6040516105349190612cff565b60405180910390f35b34801561054957600080fd5b50610552610eee565b005b34801561056057600080fd5b50610569610fc7565b6040516105769190612b18565b60405180910390f35b34801561058b57600080fd5b50610594610fed565b6040516105a19190612a52565b60405180910390f35b3480156105b657600080fd5b506105d160048036038101906105cc9190612c31565b61107f565b6040516105de91906129a7565b60405180910390f35b3480156105f357600080fd5b5061060e60048036038101906106099190612db4565b61109f565b005b34801561061c57600080fd5b5061063760048036038101906106329190612f29565b6110b5565b005b34801561064557600080fd5b50610660600480360381019061065b9190612aaa565b611117565b60405161066d9190612a52565b60405180910390f35b34801561068257600080fd5b5061068b61117f565b6040516106989190612fc9565b60405180910390f35b3480156106ad57600080fd5b506106c860048036038101906106c39190612fe4565b611185565b6040516106d591906129a7565b60405180910390f35b3480156106ea57600080fd5b506106f3611219565b6040516107009190613047565b60405180910390f35b34801561071557600080fd5b50610730600480360381019061072b91906130c2565b611225565b005b61073a6113c1565b005b34801561074857600080fd5b50610751611b8a565b60405161075e9190612fc9565b60405180910390f35b60007f80ac58cd000000000000000000000000000000000000000000000000000000007bffffffffffffffffffffffffffffffffffffffffffffffffffffffff1916827bffffffffffffffffffffffffffffffffffffffffffffffffffffffff1916148061083257507f5b5e139f000000000000000000000000000000000000000000000000000000007bffffffffffffffffffffffffffffffffffffffffffffffffffffffff1916827bffffffffffffffffffffffffffffffffffffffffffffffffffffffff1916145b80610842575061084182611b9e565b5b9050919050565b6060600080546108589061313e565b80601f01602080910402602001604051908101604052809291908181526020018280546108849061313e565b80156108d15780601f106108a6576101008083540402835291602001916108d1565b820191906000526020600020905b8154815290600101906020018083116108b457829003601f168201915b5050505050905090565b60006108e682611c08565b6004600083815260200190815260200160002060009054906101000a900473ffffffffffffffffffffffffffffffffffffffff169050919050565b600061092c82610da6565b90508073ffffffffffffffffffffffffffffffffffffffff168373ffffffffffffffffffffffffffffffffffffffff160361099c576040517f08c379a0000000000000000000000000000000000000000000000000000000008152600401610993906131e1565b60405180910390fd5b8073ffffffffffffffffffffffffffffffffffffffff166109bb611c53565b73ffffffffffffffffffffffffffffffffffffffff1614806109ea57506109e9816109e4611c53565b611185565b5b610a29576040517f08c379a0000000000000000000000000000000000000000000000000000000008152600401610a2090613273565b60405180910390fd5b610a338383611c5b565b505050565b600e60009054906101000a900460ff1681565b600d6020528060005260406000206000915054906101000a900460ff1681565b600b60029054906101000a900468ffffffffffffffffff1681565b610a97610a91611c53565b82611d14565b610ad6576040517f08c379a0000000000000000000000000000000000000000000000000000000008152600401610acd90613305565b60405180910390fd5b610ae1838383611da9565b505050565b600760009054906101000a900473ffffffffffffffffffffffffffffffffffffffff1673ffffffffffffffffffffffffffffffffffffffff163373ffffffffffffffffffffffffffffffffffffffff1614610b76576040517f08c379a0000000000000000000000000000000000000000000000000000000008152600401610b6d90613371565b60405180910390fd5b6000600c60008373ffffffffffffffffffffffffffffffffffffffff1673ffffffffffffffffffffffffffffffffffffffff16815260200190815260200160002060006101000a81548160ff0219169083151502179055506001600a54610bdd91906133c0565b5050565b60095481565b601481565b600760009054906101000a900473ffffffffffffffffffffffffffffffffffffffff1673ffffffffffffffffffffffffffffffffffffffff163373ffffffffffffffffffffffffffffffffffffffff1614610c7c576040517f08c379a0000000000000000000000000000000000000000000000000000000008152600401610c7390613371565b60405180910390fd5b6103e861ffff16600b60009054906101000a900461ffff1661ffff161480610ca5575060095442115b610ce4576040517f08c379a0000000000000000000000000000000000000000000000000000000008152600401610cdb90613440565b60405180910390fd5b600760009054906101000a900473ffffffffffffffffffffffffffffffffffffffff1673ffffffffffffffffffffffffffffffffffffffff16ff5b610d3a838383604051806020016040528060008152506110b5565b505050565b600f8181548110610d4f57600080fd5b90600052602060002090600202016000915090508060000154908060010160009054906101000a900473ffffffffffffffffffffffffffffffffffffffff16908060010160149054906101000a900460ff16905083565b600080610db2836120a2565b9050600073ffffffffffffffffffffffffffffffffffffffff168173ffffffffffffffffffffffffffffffffffffffff1603610e23576040517f08c379a0000000000000000000000000000000000000000000000000000000008152600401610e1a906134ac565b60405180910390fd5b80915050919050565b60c881565b60008073ffffffffffffffffffffffffffffffffffffffff168273ffffffffffffffffffffffffffffffffffffffff1603610ea1576040517f08c379a0000000000000000000000000000000000000000000000000000000008152600401610e989061353e565b60405180910390fd5b600360008373ffffffffffffffffffffffffffffffffffffffff1673ffffffffffffffffffffffffffffffffffffffff168152602001908152602001600020549050919050565b60085481565b600760009054906101000a900473ffffffffffffffffffffffffffffffffffffffff1673ffffffffffffffffffffffffffffffffffffffff163373ffffffffffffffffffffffffffffffffffffffff1614610f7e576040517f08c379a0000000000000000000000000000000000000000000000000000000008152600401610f7590613371565b60405180910390fd5b42600881905550620d2f0042610f94919061355e565b6009819055506001600e60006101000a81548160ff02191690836001811115610fc057610fbf612b9f565b5b0217905550565b600760009054906101000a900473ffffffffffffffffffffffffffffffffffffffff1681565b606060018054610ffc9061313e565b80601f01602080910402602001604051908101604052809291908181526020018280546110289061313e565b80156110755780601f1061104a57610100808354040283529160200191611075565b820191906000526020600020905b81548152906001019060200180831161105857829003601f168201915b5050505050905090565b600c6020528060005260406000206000915054906101000a900460ff1681565b6110b16110aa611c53565b83836120df565b5050565b6110c66110c0611c53565b83611d14565b611105576040517f08c379a00000000000000000000000000000000000000000000000000000000081526004016110fc90613305565b60405180910390fd5b6111118484848461224b565b50505050565b606061112282611c08565b600061112c6122a7565b9050600081511161114c5760405180602001604052806000815250611177565b80611156846122be565b6040516020016111679291906135ce565b6040516020818303038152906040525b915050919050565b6103e881565b6000600560008473ffffffffffffffffffffffffffffffffffffffff1673ffffffffffffffffffffffffffffffffffffffff16815260200190815260200160002060008373ffffffffffffffffffffffffffffffffffffffff1673ffffffffffffffffffffffffffffffffffffffff16815260200190815260200160002060009054906101000a900460ff16905092915050565b6706f05b59d3b2000081565b600760009054906101000a900473ffffffffffffffffffffffffffffffffffffffff1673ffffffffffffffffffffffffffffffffffffffff163373ffffffffffffffffffffffffffffffffffffffff16146112b5576040517f08c379a00000000000000000000000000000000000000000000000000000000081526004016112ac90613371565b60405180910390fd5b600082829050905060c860ff16600a5410611305576040517f08c379a00000000000000000000000000000000000000000000000000000000081526004016112fc9061363e565b60405180910390fd5b60005b818110156113a2576001600c60008686858181106113295761132861365e565b5b905060200201602081019061133e9190612c31565b73ffffffffffffffffffffffffffffffffffffffff1673ffffffffffffffffffffffffffffffffffffffff16815260200190815260200160002060006101000a81548160ff021916908315150217905550808061139a9061368d565b915050611308565b5080600a60008282546113b5919061355e565b92505081905550505050565b6103e861ffff16600b60009054906101000a900461ffff1661ffff161061141d576040517f08c379a000000000000000000000000000000000000000000000000000000000815260040161141490613721565b60405180910390fd5b6706f05b59d3b2000067ffffffffffffffff16341015611472576040517f08c379a00000000000000000000000000000000000000000000000000000000081526004016114699061378d565b60405180910390fd5b60011515600d60003373ffffffffffffffffffffffffffffffffffffffff1673ffffffffffffffffffffffffffffffffffffffff16815260200190815260200160002060009054906101000a900460ff16151503611505576040517f08c379a00000000000000000000000000000000000000000000000000000000081526004016114fc906137f9565b60405180910390fd5b60006706f05b59d3b2000067ffffffffffffffff163461152591906133c0565b90506000600181111561153b5761153a612b9f565b5b600e60009054906101000a900460ff16600181111561155d5761155c612b9f565b5b0361191c5760011515600c60003373ffffffffffffffffffffffffffffffffffffffff1673ffffffffffffffffffffffffffffffffffffffff16815260200190815260200160002060009054906101000a900460ff161515146115f5576040517f08c379a00000000000000000000000000000000000000000000000000000000081526004016115ec90613865565b60405180910390fd5b60c860ff16600f8054905010611640576040517f08c379a0000000000000000000000000000000000000000000000000000000008152600401611637906138d1565b60405180910390fd5b60006040518060600160405280600f8054905081526020013373ffffffffffffffffffffffffffffffffffffffff168152602001600115158152509050600f8190806001815401808255809150506001900390600052602060002090600202016000909190919091506000820151816000015560208201518160010160006101000a81548173ffffffffffffffffffffffffffffffffffffffff021916908373ffffffffffffffffffffffffffffffffffffffff16021790555060408201518160010160146101000a81548160ff02191690831515021790555050503373ffffffffffffffffffffffffffffffffffffffff166108fc839081150290604051600060405180830381858888f19350505050158015611762573d6000803e3d6000fd5b5061177233600f8054905061238c565b600b600081819054906101000a900461ffff1680929190611792906138f1565b91906101000a81548161ffff021916908361ffff160217905550506706f05b59d3b2000067ffffffffffffffff16600b60028282829054906101000a900468ffffffffffffffffff166117e5919061391b565b92506101000a81548168ffffffffffffffffff021916908368ffffffffffffffffff1602179055506001600d60003373ffffffffffffffffffffffffffffffffffffffff1673ffffffffffffffffffffffffffffffffffffffff16815260200190815260200160002060006101000a81548160ff021916908315150217905550601460ff16600f80549050101561191657600660009054906101000a900473ffffffffffffffffffffffffffffffffffffffff1673ffffffffffffffffffffffffffffffffffffffff166301173a74336040518263ffffffff1660e01b81526004016118d19190612b18565b6020604051808303816000875af11580156118f0573d6000803e3d6000fd5b505050506040513d601f19601f82011682018060405250810190611914919061396d565b505b50611b87565b6009544210611960576040517f08c379a0000000000000000000000000000000000000000000000000000000008152600401611957906139e6565b60405180910390fd5b60006040518060600160405280600f8054905081526020013373ffffffffffffffffffffffffffffffffffffffff168152602001600115158152509050600f8190806001815401808255809150506001900390600052602060002090600202016000909190919091506000820151816000015560208201518160010160006101000a81548173ffffffffffffffffffffffffffffffffffffffff021916908373ffffffffffffffffffffffffffffffffffffffff16021790555060408201518160010160146101000a81548160ff02191690831515021790555050503373ffffffffffffffffffffffffffffffffffffffff166108fc839081150290604051600060405180830381858888f19350505050158015611a82573d6000803e3d6000fd5b50611a9233600f8054905061238c565b600b600081819054906101000a900461ffff1680929190611ab2906138f1565b91906101000a81548161ffff021916908361ffff160217905550506706f05b59d3b2000067ffffffffffffffff16600b60028282829054906101000a900468ffffffffffffffffff16611b05919061391b565b92506101000a81548168ffffffffffffffffff021916908368ffffffffffffffffff1602179055506001600d60003373ffffffffffffffffffffffffffffffffffffffff1673ffffffffffffffffffffffffffffffffffffffff16815260200190815260200160002060006101000a81548160ff021916908315150217905550505b50565b600b60009054906101000a900461ffff1681565b60007f01ffc9a7000000000000000000000000000000000000000000000000000000007bffffffffffffffffffffffffffffffffffffffffffffffffffffffff1916827bffffffffffffffffffffffffffffffffffffffffffffffffffffffff1916149050919050565b611c11816125a9565b611c50576040517f08c379a0000000000000000000000000000000000000000000000000000000008152600401611c47906134ac565b60405180910390fd5b50565b600033905090565b816004600083815260200190815260200160002060006101000a81548173ffffffffffffffffffffffffffffffffffffffff021916908373ffffffffffffffffffffffffffffffffffffffff160217905550808273ffffffffffffffffffffffffffffffffffffffff16611cce83610da6565b73ffffffffffffffffffffffffffffffffffffffff167f8c5be1e5ebec7d5bd14f71427d1e84f3dd0314c0f7b2291e5b200ac8c7c3b92560405160405180910390a45050565b600080611d2083610da6565b90508073ffffffffffffffffffffffffffffffffffffffff168473ffffffffffffffffffffffffffffffffffffffff161480611d625750611d618185611185565b5b80611da057508373ffffffffffffffffffffffffffffffffffffffff16611d88846108db565b73ffffffffffffffffffffffffffffffffffffffff16145b91505092915050565b8273ffffffffffffffffffffffffffffffffffffffff16611dc982610da6565b73ffffffffffffffffffffffffffffffffffffffff1614611e1f576040517f08c379a0000000000000000000000000000000000000000000000000000000008152600401611e1690613a78565b60405180910390fd5b600073ffffffffffffffffffffffffffffffffffffffff168273ffffffffffffffffffffffffffffffffffffffff1603611e8e576040517f08c379a0000000000000000000000000000000000000000000000000000000008152600401611e8590613b0a565b60405180910390fd5b611e9b83838360016125ea565b8273ffffffffffffffffffffffffffffffffffffffff16611ebb82610da6565b73ffffffffffffffffffffffffffffffffffffffff1614611f11576040517f08c379a0000000000000000000000000000000000000000000000000000000008152600401611f0890613a78565b60405180910390fd5b6004600082815260200190815260200160002060006101000a81549073ffffffffffffffffffffffffffffffffffffffff02191690556001600360008573ffffffffffffffffffffffffffffffffffffffff1673ffffffffffffffffffffffffffffffffffffffff168152602001908152602001600020600082825403925050819055506001600360008473ffffffffffffffffffffffffffffffffffffffff1673ffffffffffffffffffffffffffffffffffffffff16815260200190815260200160002060008282540192505081905550816002600083815260200190815260200160002060006101000a81548173ffffffffffffffffffffffffffffffffffffffff021916908373ffffffffffffffffffffffffffffffffffffffff160217905550808273ffffffffffffffffffffffffffffffffffffffff168473ffffffffffffffffffffffffffffffffffffffff167fddf252ad1be2c89b69c2b068fc378daa952ba7f163c4a11628f55a4df523b3ef60405160405180910390a461209d83838360016125f0565b505050565b60006002600083815260200190815260200160002060009054906101000a900473ffffffffffffffffffffffffffffffffffffffff169050919050565b8173ffffffffffffffffffffffffffffffffffffffff168373ffffffffffffffffffffffffffffffffffffffff160361214d576040517f08c379a000000000000000000000000000000000000000000000000000000000815260040161214490613b76565b60405180910390fd5b80600560008573ffffffffffffffffffffffffffffffffffffffff1673ffffffffffffffffffffffffffffffffffffffff16815260200190815260200160002060008473ffffffffffffffffffffffffffffffffffffffff1673ffffffffffffffffffffffffffffffffffffffff16815260200190815260200160002060006101000a81548160ff0219169083151502179055508173ffffffffffffffffffffffffffffffffffffffff168373ffffffffffffffffffffffffffffffffffffffff167f17307eab39ab6107e8899845ad3d59bd9653f200f220920489ca2b5937696c318360405161223e91906129a7565b60405180910390a3505050565b612256848484611da9565b612262848484846125f6565b6122a1576040517f08c379a000000000000000000000000000000000000000000000000000000000815260040161229890613c08565b60405180910390fd5b50505050565b606060405180602001604052806000815250905090565b6060600060016122cd8461277d565b01905060008167ffffffffffffffff8111156122ec576122eb612dfe565b5b6040519080825280601f01601f19166020018201604052801561231e5781602001600182028036833780820191505090505b509050600082602001820190505b600115612381578080600190039150507f3031323334353637383961626364656600000000000000000000000000000000600a86061a8153600a858161237557612374613c28565b5b0494506000850361232c575b819350505050919050565b600073ffffffffffffffffffffffffffffffffffffffff168273ffffffffffffffffffffffffffffffffffffffff16036123fb576040517f08c379a00000000000000000000000000000000000000000000000000000000081526004016123f290613ca3565b60405180910390fd5b612404816125a9565b15612444576040517f08c379a000000000000000000000000000000000000000000000000000000000815260040161243b90613d0f565b60405180910390fd5b6124526000838360016125ea565b61245b816125a9565b1561249b576040517f08c379a000000000000000000000000000000000000000000000000000000000815260040161249290613d0f565b60405180910390fd5b6001600360008473ffffffffffffffffffffffffffffffffffffffff1673ffffffffffffffffffffffffffffffffffffffff16815260200190815260200160002060008282540192505081905550816002600083815260200190815260200160002060006101000a81548173ffffffffffffffffffffffffffffffffffffffff021916908373ffffffffffffffffffffffffffffffffffffffff160217905550808273ffffffffffffffffffffffffffffffffffffffff16600073ffffffffffffffffffffffffffffffffffffffff167fddf252ad1be2c89b69c2b068fc378daa952ba7f163c4a11628f55a4df523b3ef60405160405180910390a46125a56000838360016125f0565b5050565b60008073ffffffffffffffffffffffffffffffffffffffff166125cb836120a2565b73ffffffffffffffffffffffffffffffffffffffff1614159050919050565b50505050565b50505050565b60006126178473ffffffffffffffffffffffffffffffffffffffff166128d0565b15612770578373ffffffffffffffffffffffffffffffffffffffff1663150b7a02612640611c53565b8786866040518563ffffffff1660e01b81526004016126629493929190613d84565b6020604051808303816000875af192505050801561269e57506040513d601f19601f8201168201806040525081019061269b9190613de5565b60015b612720573d80600081146126ce576040519150601f19603f3d011682016040523d82523d6000602084013e6126d3565b606091505b506000815103612718576040517f08c379a000000000000000000000000000000000000000000000000000000000815260040161270f90613c08565b60405180910390fd5b805181602001fd5b63150b7a0260e01b7bffffffffffffffffffffffffffffffffffffffffffffffffffffffff1916817bffffffffffffffffffffffffffffffffffffffffffffffffffffffff191614915050612775565b600190505b949350505050565b600080600090507a184f03e93ff9f4daa797ed6e38ed64bf6a1f01000000000000000083106127db577a184f03e93ff9f4daa797ed6e38ed64bf6a1f01000000000000000083816127d1576127d0613c28565b5b0492506040810190505b6d04ee2d6d415b85acef81000000008310612818576d04ee2d6d415b85acef8100000000838161280e5761280d613c28565b5b0492506020810190505b662386f26fc10000831061284757662386f26fc10000838161283d5761283c613c28565b5b0492506010810190505b6305f5e1008310612870576305f5e100838161286657612865613c28565b5b0492506008810190505b612710831061289557612710838161288b5761288a613c28565b5b0492506004810190505b606483106128b857606483816128ae576128ad613c28565b5b0492506002810190505b600a83106128c7576001810190505b80915050919050565b6000808273ffffffffffffffffffffffffffffffffffffffff163b119050919050565b6000604051905090565b600080fd5b600080fd5b60007fffffffff0000000000000000000000000000000000000000000000000000000082169050919050565b61293c81612907565b811461294757600080fd5b50565b60008135905061295981612933565b92915050565b600060208284031215612975576129746128fd565b5b60006129838482850161294a565b91505092915050565b60008115159050919050565b6129a18161298c565b82525050565b60006020820190506129bc6000830184612998565b92915050565b600081519050919050565b600082825260208201905092915050565b60005b838110156129fc5780820151818401526020810190506129e1565b60008484015250505050565b6000601f19601f8301169050919050565b6000612a24826129c2565b612a2e81856129cd565b9350612a3e8185602086016129de565b612a4781612a08565b840191505092915050565b60006020820190508181036000830152612a6c8184612a19565b905092915050565b6000819050919050565b612a8781612a74565b8114612a9257600080fd5b50565b600081359050612aa481612a7e565b92915050565b600060208284031215612ac057612abf6128fd565b5b6000612ace84828501612a95565b91505092915050565b600073ffffffffffffffffffffffffffffffffffffffff82169050919050565b6000612b0282612ad7565b9050919050565b612b1281612af7565b82525050565b6000602082019050612b2d6000830184612b09565b92915050565b612b3c81612af7565b8114612b4757600080fd5b50565b600081359050612b5981612b33565b92915050565b60008060408385031215612b7657612b756128fd565b5b6000612b8485828601612b4a565b9250506020612b9585828601612a95565b9150509250929050565b7f4e487b7100000000000000000000000000000000000000000000000000000000600052602160045260246000fd5b60028110612bdf57612bde612b9f565b5b50565b6000819050612bf082612bce565b919050565b6000612c0082612be2565b9050919050565b612c1081612bf5565b82525050565b6000602082019050612c2b6000830184612c07565b92915050565b600060208284031215612c4757612c466128fd565b5b6000612c5584828501612b4a565b91505092915050565b600068ffffffffffffffffff82169050919050565b612c7c81612c5e565b82525050565b6000602082019050612c976000830184612c73565b92915050565b600080600060608486031215612cb657612cb56128fd565b5b6000612cc486828701612b4a565b9350506020612cd586828701612b4a565b9250506040612ce686828701612a95565b9150509250925092565b612cf981612a74565b82525050565b6000602082019050612d146000830184612cf0565b92915050565b600060ff82169050919050565b612d3081612d1a565b82525050565b6000602082019050612d4b6000830184612d27565b92915050565b6000606082019050612d666000830186612cf0565b612d736020830185612b09565b612d806040830184612998565b949350505050565b612d918161298c565b8114612d9c57600080fd5b50565b600081359050612dae81612d88565b92915050565b60008060408385031215612dcb57612dca6128fd565b5b6000612dd985828601612b4a565b9250506020612dea85828601612d9f565b9150509250929050565b600080fd5b600080fd5b7f4e487b7100000000000000000000000000000000000000000000000000000000600052604160045260246000fd5b612e3682612a08565b810181811067ffffffffffffffff82111715612e5557612e54612dfe565b5b80604052505050565b6000612e686128f3565b9050612e748282612e2d565b919050565b600067ffffffffffffffff821115612e9457612e93612dfe565b5b612e9d82612a08565b9050602081019050919050565b82818337600083830152505050565b6000612ecc612ec784612e79565b612e5e565b905082815260208101848484011115612ee857612ee7612df9565b5b612ef3848285612eaa565b509392505050565b600082601f830112612f1057612f0f612df4565b5b8135612f20848260208601612eb9565b91505092915050565b60008060008060808587031215612f4357612f426128fd565b5b6000612f5187828801612b4a565b9450506020612f6287828801612b4a565b9350506040612f7387828801612a95565b925050606085013567ffffffffffffffff811115612f9457612f93612902565b5b612fa087828801612efb565b91505092959194509250565b600061ffff82169050919050565b612fc381612fac565b82525050565b6000602082019050612fde6000830184612fba565b92915050565b60008060408385031215612ffb57612ffa6128fd565b5b600061300985828601612b4a565b925050602061301a85828601612b4a565b9150509250929050565b600067ffffffffffffffff82169050919050565b61304181613024565b82525050565b600060208201905061305c6000830184613038565b92915050565b600080fd5b600080fd5b60008083601f84011261308257613081612df4565b5b8235905067ffffffffffffffff81111561309f5761309e613062565b5b6020830191508360208202830111156130bb576130ba613067565b5b9250929050565b600080602083850312156130d9576130d86128fd565b5b600083013567ffffffffffffffff8111156130f7576130f6612902565b5b6131038582860161306c565b92509250509250929050565b7f4e487b7100000000000000000000000000000000000000000000000000000000600052602260045260246000fd5b6000600282049050600182168061315657607f821691505b6020821081036131695761316861310f565b5b50919050565b7f4552433732313a20617070726f76616c20746f2063757272656e74206f776e6560008201527f7200000000000000000000000000000000000000000000000000000000000000602082015250565b60006131cb6021836129cd565b91506131d68261316f565b604082019050919050565b600060208201905081810360008301526131fa816131be565b9050919050565b7f4552433732313a20617070726f76652063616c6c6572206973206e6f7420746f60008201527f6b656e206f776e6572206f7220617070726f76656420666f7220616c6c000000602082015250565b600061325d603d836129cd565b915061326882613201565b604082019050919050565b6000602082019050818103600083015261328c81613250565b9050919050565b7f4552433732313a2063616c6c6572206973206e6f7420746f6b656e206f776e6560008201527f72206f7220617070726f76656400000000000000000000000000000000000000602082015250565b60006132ef602d836129cd565b91506132fa82613293565b604082019050919050565b6000602082019050818103600083015261331e816132e2565b9050919050565b7f4f6e6c79206f776e657220686173207065726d697373696f6e00000000000000600082015250565b600061335b6019836129cd565b915061336682613325565b602082019050919050565b6000602082019050818103600083015261338a8161334e565b9050919050565b7f4e487b7100000000000000000000000000000000000000000000000000000000600052601160045260246000fd5b60006133cb82612a74565b91506133d683612a74565b92508282039050818111156133ee576133ed613391565b5b92915050565b7f5469636b6574732053616c657320486173206e6f742066696e69736865640000600082015250565b600061342a601e836129cd565b9150613435826133f4565b602082019050919050565b600060208201905081810360008301526134598161341d565b9050919050565b7f4552433732313a20696e76616c696420746f6b656e2049440000000000000000600082015250565b60006134966018836129cd565b91506134a182613460565b602082019050919050565b600060208201905081810360008301526134c581613489565b9050919050565b7f4552433732313a2061646472657373207a65726f206973206e6f74206120766160008201527f6c6964206f776e65720000000000000000000000000000000000000000000000602082015250565b60006135286029836129cd565b9150613533826134cc565b604082019050919050565b600060208201905081810360008301526135578161351b565b9050919050565b600061356982612a74565b915061357483612a74565b925082820190508082111561358c5761358b613391565b5b92915050565b600081905092915050565b60006135a8826129c2565b6135b28185613592565b93506135c28185602086016129de565b80840191505092915050565b60006135da828561359d565b91506135e6828461359d565b91508190509392505050565b7f5469636b6574732063616e206265206d6f7265207468616e2032303000000000600082015250565b6000613628601c836129cd565b9150613633826135f2565b602082019050919050565b600060208201905081810360008301526136578161361b565b9050919050565b7f4e487b7100000000000000000000000000000000000000000000000000000000600052603260045260246000fd5b600061369882612a74565b91507fffffffffffffffffffffffffffffffffffffffffffffffffffffffffffffffff82036136ca576136c9613391565b5b600182019050919050565b7f5469636b6574206861732066696e697368656400000000000000000000000000600082015250565b600061370b6013836129cd565b9150613716826136d5565b602082019050919050565b6000602082019050818103600083015261373a816136fe565b9050919050565b7f5469636b657420507269636520697320302e3520657468657200000000000000600082015250565b60006137776019836129cd565b915061378282613741565b602082019050919050565b600060208201905081810360008301526137a68161376a565b9050919050565b7f596f752061726520616c72656164792061206775657374000000000000000000600082015250565b60006137e36017836129cd565b91506137ee826137ad565b602082019050919050565b60006020820190508181036000830152613812816137d6565b9050919050565b7f596f7520617265206e6f742057686974656c6973746564000000000000000000600082015250565b600061384f6017836129cd565b915061385a82613819565b602082019050919050565b6000602082019050818103600083015261387e81613842565b9050919050565b7f4669727374203230302065786365656465640000000000000000000000000000600082015250565b60006138bb6012836129cd565b91506138c682613885565b602082019050919050565b600060208201905081810360008301526138ea816138ae565b9050919050565b60006138fc82612fac565b915061ffff82036139105761390f613391565b5b600182019050919050565b600061392682612c5e565b915061393183612c5e565b9250828201905068ffffffffffffffffff81111561395257613951613391565b5b92915050565b60008151905061396781612a7e565b92915050565b600060208284031215613983576139826128fd565b5b600061399184828501613958565b91505092915050565b7f5469636b65742073616c6573206973206f766572000000000000000000000000600082015250565b60006139d06014836129cd565b91506139db8261399a565b602082019050919050565b600060208201905081810360008301526139ff816139c3565b9050919050565b7f4552433732313a207472616e736665722066726f6d20696e636f72726563742060008201527f6f776e6572000000000000000000000000000000000000000000000000000000602082015250565b6000613a626025836129cd565b9150613a6d82613a06565b604082019050919050565b60006020820190508181036000830152613a9181613a55565b9050919050565b7f4552433732313a207472616e7366657220746f20746865207a65726f2061646460008201527f7265737300000000000000000000000000000000000000000000000000000000602082015250565b6000613af46024836129cd565b9150613aff82613a98565b604082019050919050565b60006020820190508181036000830152613b2381613ae7565b9050919050565b7f4552433732313a20617070726f766520746f2063616c6c657200000000000000600082015250565b6000613b606019836129cd565b9150613b6b82613b2a565b602082019050919050565b60006020820190508181036000830152613b8f81613b53565b9050919050565b7f4552433732313a207472616e7366657220746f206e6f6e20455243373231526560008201527f63656976657220696d706c656d656e7465720000000000000000000000000000602082015250565b6000613bf26032836129cd565b9150613bfd82613b96565b604082019050919050565b60006020820190508181036000830152613c2181613be5565b9050919050565b7f4e487b7100000000000000000000000000000000000000000000000000000000600052601260045260246000fd5b7f4552433732313a206d696e7420746f20746865207a65726f2061646472657373600082015250565b6000613c8d6020836129cd565b9150613c9882613c57565b602082019050919050565b60006020820190508181036000830152613cbc81613c80565b9050919050565b7f4552433732313a20746f6b656e20616c7265616479206d696e74656400000000600082015250565b6000613cf9601c836129cd565b9150613d0482613cc3565b602082019050919050565b60006020820190508181036000830152613d2881613cec565b9050919050565b600081519050919050565b600082825260208201905092915050565b6000613d5682613d2f565b613d608185613d3a565b9350613d708185602086016129de565b613d7981612a08565b840191505092915050565b6000608082019050613d996000830187612b09565b613da66020830186612b09565b613db36040830185612cf0565b8181036060830152613dc58184613d4b565b905095945050505050565b600081519050613ddf81612933565b92915050565b600060208284031215613dfb57613dfa6128fd565b5b6000613e0984828501613dd0565b9150509291505056fea2646970667358221220918e820c68f9f4369e35f24f0eeca044a9907874b1e814e702eae5fbfd5a117864736f6c6343000812003360806040523480156200001157600080fd5b506040518060400160405280600e81526020017f534f554c424f554e44544f4b454e0000000000000000000000000000000000008152506040518060400160405280600381526020017f534254000000000000000000000000000000000000000000000000000000000081525081600090816200008f919062000365565b508060019081620000a1919062000365565b50505033600660006101000a81548173ffffffffffffffffffffffffffffffffffffffff021916908373ffffffffffffffffffffffffffffffffffffffff1602179055506200044c565b600081519050919050565b7f4e487b7100000000000000000000000000000000000000000000000000000000600052604160045260246000fd5b7f4e487b7100000000000000000000000000000000000000000000000000000000600052602260045260246000fd5b600060028204905060018216806200016d57607f821691505b60208210810362000183576200018262000125565b5b50919050565b60008190508160005260206000209050919050565b60006020601f8301049050919050565b600082821b905092915050565b600060088302620001ed7fffffffffffffffffffffffffffffffffffffffffffffffffffffffffffffffff82620001ae565b620001f98683620001ae565b95508019841693508086168417925050509392505050565b6000819050919050565b6000819050919050565b600062000246620002406200023a8462000211565b6200021b565b62000211565b9050919050565b6000819050919050565b620002628362000225565b6200027a62000271826200024d565b848454620001bb565b825550505050565b600090565b6200029162000282565b6200029e81848462000257565b505050565b5b81811015620002c657620002ba60008262000287565b600181019050620002a4565b5050565b601f8211156200031557620002df8162000189565b620002ea846200019e565b81016020851015620002fa578190505b6200031262000309856200019e565b830182620002a3565b50505b505050565b600082821c905092915050565b60006200033a600019846008026200031a565b1980831691505092915050565b600062000355838362000327565b9150826002028217905092915050565b6200037082620000eb565b67ffffffffffffffff8111156200038c576200038b620000f6565b5b62000398825462000154565b620003a5828285620002ca565b600060209050601f831160018114620003dd5760008415620003c8578287015190505b620003d4858262000347565b86555062000444565b601f198416620003ed8662000189565b60005b828110156200041757848901518255600182019150602085019450602081019050620003f0565b8683101562000437578489015162000433601f89168262000327565b8355505b6001600288020188555050505b505050505050565b611954806200045c6000396000f3fe608060405234801561001057600080fd5b506004361061010b5760003560e01c806370a08231116100a2578063b5aff4a911610071578063b5aff4a9146102ca578063b88d4fde146102e8578063c87b56dd14610304578063e985e9c514610334578063f851a440146103645761010b565b806370a08231146102425780637dd122be1461027257806395d89b4114610290578063a22cb465146102ae5761010b565b8063095ea7b3116100de578063095ea7b3146101be57806323b872dd146101da57806342842e0e146101f65780636352211e146102125761010b565b806301173a741461011057806301ffc9a71461014057806306fdde0314610170578063081812fc1461018e575b600080fd5b61012a60048036038101906101259190610faa565b610382565b6040516101379190610ff0565b60405180910390f35b61015a60048036038101906101559190611063565b6104c9565b60405161016791906110ab565b60405180910390f35b6101786105ab565b6040516101859190611156565b60405180910390f35b6101a860048036038101906101a391906111a4565b61063d565b6040516101b591906111e0565b60405180910390f35b6101d860048036038101906101d391906111fb565b610683565b005b6101f460048036038101906101ef919061123b565b610687565b005b610210600480360381019061020b919061123b565b61068c565b005b61022c600480360381019061022791906111a4565b610691565b60405161023991906111e0565b60405180910390f35b61025c60048036038101906102579190610faa565b610717565b6040516102699190610ff0565b60405180910390f35b61027a6107ce565b60405161028791906112aa565b60405180910390f35b6102986107e1565b6040516102a59190611156565b60405180910390f35b6102c860048036038101906102c391906112f1565b610873565b005b6102d2610877565b6040516102df91906112aa565b60405180910390f35b61030260048036038101906102fd9190611466565b61087c565b005b61031e600480360381019061031991906111a4565b610882565b60405161032b9190611156565b60405180910390f35b61034e600480360381019061034991906114e9565b6108ea565b60405161035b91906110ab565b60405180910390f35b61036c61097e565b60405161037991906111e0565b60405180910390f35b6000600660009054906101000a900473ffffffffffffffffffffffffffffffffffffffff1673ffffffffffffffffffffffffffffffffffffffff163373ffffffffffffffffffffffffffffffffffffffff1614610414576040517f08c379a000000000000000000000000000000000000000000000000000000000815260040161040b90611575565b60405180910390fd5b601460ff16600660149054906101000a900460ff1660ff161061046c576040517f08c379a0000000000000000000000000000000000000000000000000000000008152600401610463906115e1565b60405180910390fd5b6006601481819054906101000a900460ff1661048790611630565b91906101000a81548160ff021916908360ff1602179055506000600660149054906101000a900460ff1660ff1690506104c083826109a4565b80915050919050565b60007f80ac58cd000000000000000000000000000000000000000000000000000000007bffffffffffffffffffffffffffffffffffffffffffffffffffffffff1916827bffffffffffffffffffffffffffffffffffffffffffffffffffffffff1916148061059457507f5b5e139f000000000000000000000000000000000000000000000000000000007bffffffffffffffffffffffffffffffffffffffffffffffffffffffff1916827bffffffffffffffffffffffffffffffffffffffffffffffffffffffff1916145b806105a457506105a382610bc1565b5b9050919050565b6060600080546105ba90611688565b80601f01602080910402602001604051908101604052809291908181526020018280546105e690611688565b80156106335780601f1061060857610100808354040283529160200191610633565b820191906000526020600020905b81548152906001019060200180831161061657829003601f168201915b5050505050905090565b600061064882610c2b565b6004600083815260200190815260200160002060009054906101000a900473ffffffffffffffffffffffffffffffffffffffff169050919050565b5050565b505050565b505050565b60008061069d83610c76565b9050600073ffffffffffffffffffffffffffffffffffffffff168173ffffffffffffffffffffffffffffffffffffffff160361070e576040517f08c379a000000000000000000000000000000000000000000000000000000000815260040161070590611705565b60405180910390fd5b80915050919050565b60008073ffffffffffffffffffffffffffffffffffffffff168273ffffffffffffffffffffffffffffffffffffffff1603610787576040517f08c379a000000000000000000000000000000000000000000000000000000000815260040161077e90611797565b60405180910390fd5b600360008373ffffffffffffffffffffffffffffffffffffffff1673ffffffffffffffffffffffffffffffffffffffff168152602001908152602001600020549050919050565b600660149054906101000a900460ff1681565b6060600180546107f090611688565b80601f016020809104026020016040519081016040528092919081815260200182805461081c90611688565b80156108695780601f1061083e57610100808354040283529160200191610869565b820191906000526020600020905b81548152906001019060200180831161084c57829003601f168201915b5050505050905090565b5050565b601481565b50505050565b606061088d82610c2b565b6000610897610cb3565b905060008151116108b757604051806020016040528060008152506108e2565b806108c184610cca565b6040516020016108d29291906117f3565b6040516020818303038152906040525b915050919050565b6000600560008473ffffffffffffffffffffffffffffffffffffffff1673ffffffffffffffffffffffffffffffffffffffff16815260200190815260200160002060008373ffffffffffffffffffffffffffffffffffffffff1673ffffffffffffffffffffffffffffffffffffffff16815260200190815260200160002060009054906101000a900460ff16905092915050565b600660009054906101000a900473ffffffffffffffffffffffffffffffffffffffff1681565b600073ffffffffffffffffffffffffffffffffffffffff168273ffffffffffffffffffffffffffffffffffffffff1603610a13576040517f08c379a0000000000000000000000000000000000000000000000000000000008152600401610a0a90611863565b60405180910390fd5b610a1c81610d98565b15610a5c576040517f08c379a0000000000000000000000000000000000000000000000000000000008152600401610a53906118cf565b60405180910390fd5b610a6a600083836001610dd9565b610a7381610d98565b15610ab3576040517f08c379a0000000000000000000000000000000000000000000000000000000008152600401610aaa906118cf565b60405180910390fd5b6001600360008473ffffffffffffffffffffffffffffffffffffffff1673ffffffffffffffffffffffffffffffffffffffff16815260200190815260200160002060008282540192505081905550816002600083815260200190815260200160002060006101000a81548173ffffffffffffffffffffffffffffffffffffffff021916908373ffffffffffffffffffffffffffffffffffffffff160217905550808273ffffffffffffffffffffffffffffffffffffffff16600073ffffffffffffffffffffffffffffffffffffffff167fddf252ad1be2c89b69c2b068fc378daa952ba7f163c4a11628f55a4df523b3ef60405160405180910390a4610bbd600083836001610ddf565b5050565b60007f01ffc9a7000000000000000000000000000000000000000000000000000000007bffffffffffffffffffffffffffffffffffffffffffffffffffffffff1916827bffffffffffffffffffffffffffffffffffffffffffffffffffffffff1916149050919050565b610c3481610d98565b610c73576040517f08c379a0000000000000000000000000000000000000000000000000000000008152600401610c6a90611705565b60405180910390fd5b50565b60006002600083815260200190815260200160002060009054906101000a900473ffffffffffffffffffffffffffffffffffffffff169050919050565b606060405180602001604052806000815250905090565b606060006001610cd984610de5565b01905060008167ffffffffffffffff811115610cf857610cf761133b565b5b6040519080825280601f01601f191660200182016040528015610d2a5781602001600182028036833780820191505090505b509050600082602001820190505b600115610d8d578080600190039150507f3031323334353637383961626364656600000000000000000000000000000000600a86061a8153600a8581610d8157610d806118ef565b5b04945060008503610d38575b819350505050919050565b60008073ffffffffffffffffffffffffffffffffffffffff16610dba83610c76565b73ffffffffffffffffffffffffffffffffffffffff1614159050919050565b50505050565b50505050565b600080600090507a184f03e93ff9f4daa797ed6e38ed64bf6a1f0100000000000000008310610e43577a184f03e93ff9f4daa797ed6e38ed64bf6a1f0100000000000000008381610e3957610e386118ef565b5b0492506040810190505b6d04ee2d6d415b85acef81000000008310610e80576d04ee2d6d415b85acef81000000008381610e7657610e756118ef565b5b0492506020810190505b662386f26fc100008310610eaf57662386f26fc100008381610ea557610ea46118ef565b5b0492506010810190505b6305f5e1008310610ed8576305f5e1008381610ece57610ecd6118ef565b5b0492506008810190505b6127108310610efd576127108381610ef357610ef26118ef565b5b0492506004810190505b60648310610f205760648381610f1657610f156118ef565b5b0492506002810190505b600a8310610f2f576001810190505b80915050919050565b6000604051905090565b600080fd5b600080fd5b600073ffffffffffffffffffffffffffffffffffffffff82169050919050565b6000610f7782610f4c565b9050919050565b610f8781610f6c565b8114610f9257600080fd5b50565b600081359050610fa481610f7e565b92915050565b600060208284031215610fc057610fbf610f42565b5b6000610fce84828501610f95565b91505092915050565b6000819050919050565b610fea81610fd7565b82525050565b60006020820190506110056000830184610fe1565b92915050565b60007fffffffff0000000000000000000000000000000000000000000000000000000082169050919050565b6110408161100b565b811461104b57600080fd5b50565b60008135905061105d81611037565b92915050565b60006020828403121561107957611078610f42565b5b60006110878482850161104e565b91505092915050565b60008115159050919050565b6110a581611090565b82525050565b60006020820190506110c0600083018461109c565b92915050565b600081519050919050565b600082825260208201905092915050565b60005b838110156111005780820151818401526020810190506110e5565b60008484015250505050565b6000601f19601f8301169050919050565b6000611128826110c6565b61113281856110d1565b93506111428185602086016110e2565b61114b8161110c565b840191505092915050565b60006020820190508181036000830152611170818461111d565b905092915050565b61118181610fd7565b811461118c57600080fd5b50565b60008135905061119e81611178565b92915050565b6000602082840312156111ba576111b9610f42565b5b60006111c88482850161118f565b91505092915050565b6111da81610f6c565b82525050565b60006020820190506111f560008301846111d1565b92915050565b6000806040838503121561121257611211610f42565b5b600061122085828601610f95565b92505060206112318582860161118f565b9150509250929050565b60008060006060848603121561125457611253610f42565b5b600061126286828701610f95565b935050602061127386828701610f95565b92505060406112848682870161118f565b9150509250925092565b600060ff82169050919050565b6112a48161128e565b82525050565b60006020820190506112bf600083018461129b565b92915050565b6112ce81611090565b81146112d957600080fd5b50565b6000813590506112eb816112c5565b92915050565b6000806040838503121561130857611307610f42565b5b600061131685828601610f95565b9250506020611327858286016112dc565b9150509250929050565b600080fd5b600080fd5b7f4e487b7100000000000000000000000000000000000000000000000000000000600052604160045260246000fd5b6113738261110c565b810181811067ffffffffffffffff821117156113925761139161133b565b5b80604052505050565b60006113a5610f38565b90506113b1828261136a565b919050565b600067ffffffffffffffff8211156113d1576113d061133b565b5b6113da8261110c565b9050602081019050919050565b82818337600083830152505050565b6000611409611404846113b6565b61139b565b90508281526020810184848401111561142557611424611336565b5b6114308482856113e7565b509392505050565b600082601f83011261144d5761144c611331565b5b813561145d8482602086016113f6565b91505092915050565b600080600080608085870312156114805761147f610f42565b5b600061148e87828801610f95565b945050602061149f87828801610f95565b93505060406114b08782880161118f565b925050606085013567ffffffffffffffff8111156114d1576114d0610f47565b5b6114dd87828801611438565b91505092959194509250565b60008060408385031215611500576114ff610f42565b5b600061150e85828601610f95565b925050602061151f85828601610f95565b9150509250929050565b7f4f6e6c79206f776e657220686173207065726d697373696f6e00000000000000600082015250565b600061155f6019836110d1565b915061156a82611529565b602082019050919050565b6000602082019050818103600083015261158e81611552565b9050919050565b7f4d6178696d756d20737570706c79207265616368656400000000000000000000600082015250565b60006115cb6016836110d1565b91506115d682611595565b602082019050919050565b600060208201905081810360008301526115fa816115be565b9050919050565b7f4e487b7100000000000000000000000000000000000000000000000000000000600052601160045260246000fd5b600061163b8261128e565b915060ff820361164e5761164d611601565b5b600182019050919050565b7f4e487b7100000000000000000000000000000000000000000000000000000000600052602260045260246000fd5b600060028204905060018216806116a057607f821691505b6020821081036116b3576116b2611659565b5b50919050565b7f4552433732313a20696e76616c696420746f6b656e2049440000000000000000600082015250565b60006116ef6018836110d1565b91506116fa826116b9565b602082019050919050565b6000602082019050818103600083015261171e816116e2565b9050919050565b7f4552433732313a2061646472657373207a65726f206973206e6f74206120766160008201527f6c6964206f776e65720000000000000000000000000000000000000000000000602082015250565b60006117816029836110d1565b915061178c82611725565b604082019050919050565b600060208201905081810360008301526117b081611774565b9050919050565b600081905092915050565b60006117cd826110c6565b6117d781856117b7565b93506117e78185602086016110e2565b80840191505092915050565b60006117ff82856117c2565b915061180b82846117c2565b91508190509392505050565b7f4552433732313a206d696e7420746f20746865207a65726f2061646472657373600082015250565b600061184d6020836110d1565b915061185882611817565b602082019050919050565b6000602082019050818103600083015261187c81611840565b9050919050565b7f4552433732313a20746f6b656e20616c7265616479206d696e74656400000000600082015250565b60006118b9601c836110d1565b91506118c482611883565b602082019050919050565b600060208201905081810360008301526118e8816118ac565b9050919050565b7f4e487b7100000000000000000000000000000000000000000000000000000000600052601260045260246000fdfea264697066735822122096c345039a8c7466b977d131277463ffe30762262ca17ecbf48775adbf1ad59964736f6c63430008120033",
  "linkReferences": {},
  "deployedLinkReferences": {}
}